:08000000803102288731FB2F3B
:100F580021009D14080016302100970008006A300F
:100F680021009900980122009601080040302100D4
:100F78009E009B019C0101309D0008008731CF270E
:100F880087318731B32787318731AF278731873159
:100F9800BA278731080022008C018D01FF3021001B
:100FA8008C008D0123008D011B308C0024008D01E5
:100FB8008C012100951722009D019E0108008731B0
:100FC800C2278731F22F8731AC27873121009D183E
:100FD800EE2FEF2FEA2F1C0820008D0020000C199F
:100FE800F62FF72FE72F8D01F22F80310228F0011D
:080FF800F10120008731E32F15
:020000040001F9
:04000E00E43FFF3E8E
:00000001FF
