:020000040000FA
:040000008031132810
:100008007E1480318B1E09280A2811280B1D0D2803
:100018000E28112880311D2080317E100900803182
:100028001528F001F101F201F3017E102000803162
:10003800B4280B117A082000950078087904031970
:10004800262827282C2879088A0078080A00803171
:100058000130F2070030F33D643072067304031D6B
:10006800362837287C28013020008D00F001F10166
:100078007108803AF40080307402031D4528073067
:100088007002031C482849284A28592820000D35A1
:100098008D008230F400DE30890B5028F40B502894
:1000A8000130F0070030F13D3C28F001F101710802
:1000B800803AF40080307402031D6428073070020F
:1000C800031C6728682869287A2820000D368D00C7
:1000D8008230F400DE30890B6F28F40B6F28F201B0
:1000E800F3010130F0070030F13D5B2820008D015D
:1000F800080021001508C039173895003D30200048
:1001080095003D30F7007708FA000B118B16CC30BC
:10011800F5000030F6008031C3208031080022004D
:100128008C018D01FF3021008C008D0123008D0191
:100138001F308C0024008D018C01210095172200AE
:100148009D019E0108008031932080318031BC20C0
:1001580080318031C820803180317D208031080095
:100168008031A72080318B170B17B92880311328CD
:100178006A3021009900980122009601080076084B
:10018800F9007508F80008001630210097000800EB
:0201980008005D
:020000040001F9
:04000E00E43FFF3E8E
:00000001FF
