:020000040000FA
:08000000803102288731FD2F39
:100DD20016302100970008006A302100990098011E
:100DE2002200960108008631FE2686318631ED26E4
:100DF20086318631E9268631080022008C018D0178
:100E0200FC3021008C008D0123008D018C01240017
:100E12008D018C012100951722009D019E01080081
:100E22008631F4268731013020008D008230F000B7
:100E3200DE30890B1A2FF00B1A2F023020008D00A2
:100E42008230F000DE30890B242FF00B242F043087
:100E520020008D008230F000DE30890B2E2FF00B47
:100E62002E2F083020008D008230F000DE30890BFA
:100E7200382FF00B382F20008C1408308D00823070
:100E8200F000DE30890B432FF00B432F20008C1033
:100E92000C1408308D008230F000DE30890B4F2FA9
:100EA200F00B4F2F20000C1D572F582FCF2F08303B
:100EB2008D000C108C1408308D008230F000DE3072
:100EC200890B612FF00B612F20008C1008308D00F0
:100ED2008230F000DE30890B6C2FF00B6C2F043067
:100EE20020008D008230F000DE30890B762FF00B6F
:100EF200762F023020008D008230F000DE30890B28
:100F0200802FF00B802F013020008D008230F00006
:100F1200DE30890B8A2FF00B8A2F20008C140130CF
:100F22008D008230F000DE30890B952FF00B952F6B
:100F320020008C100C1401308D008230F000DE3065
:100F4200890BA12FF00BA12F203020008D008230C1
:100F5200F000DE30890BAB2FF00BAB2F10302000EE
:100F62008D008230F000DE30890BB52FF00BB52FEB
:100F7200083020008D008230F000DE30890BBF2F58
:100F8200F00BBF2F20000C1DC72FC82FCD2F0C1E1A
:100F9200CB2FCC2FCD2FCF2F0C10582F10308D00F0
:100FA2008230F000DE30890BD42FF00BD42F2030AA
:100FB20020008D008230F000DE30890BDE2FF00B36
:100FC200DE2F013020008D008230F000DE30890BF0
:100FD200E82FF00BE82F20000C108C1401308D004C
:100FE2008230F000DE30890BF42FF00BF42F20005A
:0E0FF2008C10142F8031022820008731112F1F
:020000040001F9
:04000E00E43FFF3E8E
:00000001FF
