:020000040000FA
:08000000803102288731FA2F3C
:100C6C0016302100970008006A3021009900980185
:100C7C0022009601080086314B26863186313A26B1
:100C8C008631863136268631080022008C018D0192
:100C9C00FF3021008C008D0123008D0103308C006E
:100CAC0024008D018C012100951722009D019E01CD
:100CBC000800553020008D000230F1000430F000A7
:100CCC00BA30890B672EF00B672EF10B672E0032B2
:100CDC00AA3020008D000230F1000430F000BA3050
:100CEC00890B762EF00B762EF10B762E0032080047
:100CFC00C33020008D000230F1000430F000BA3017
:100D0C00890B862EF00B862EF10B862E00323C3092
:100D1C0020008D000230F1000430F000BA30890B55
:100D2C00952EF00B952EF10B952E0032080081308C
:100D3C0020008D000630F1001330F000AE30890B2E
:100D4C00A52EF00BA52EF10BA52EF20120000D35D2
:100D5C008D008230F000DE30890BB22EF00BB22EFB
:100D6C000130F0007008F20706307202031CBF2E2F
:100D7C00C02EAC2E0800013020008D00F1012000A7
:100D8C000D358D008230F000DE30890BCB2EF00B50
:100D9C00CB2E0130F0007008F10707307102031CF4
:100DAC00D82ED92EC52EF10120000D368D008230A3
:100DBC00F000DE30890BE02EF00BE02E0130F0005D
:100DCC007008F10707307102031CED2EEE2EDA2E9F
:100DDC0008001030F0007008F1000830F0007008C6
:100DEC00F200F3017108720420008D007135F000DF
:100DFC007008F1007236F0007008F2004130F0001B
:100E0C00EE30890B072FF00B072F00320130F0006A
:100E1C007008F30703307302031C152F162FF82EDE
:100E2C00F3017108720420008D007136F000700817
:100E3C00F1007235F0007008F2004130F000EE3035
:100E4C00890B262FF00B262F00320130F000700892
:100E5C00F30703307302031C342F352F172F0800B0
:100E6C00023020008D000230F1000430F000BA3066
:100E7C00890B3E2FF00B3E2FF10B3E2F0032F2016F
:100E8C0020000D08F0000130F035FF3E031D4A2F05
:100E9C0070358D000230F1000430F000BA30890B4F
:100EAC00552FF00B552FF10B552F00320130F00060
:100EBC007008F20703307202031C652F662F462F51
:100ECC00403020008D000230F1000430F000BA30C8
:100EDC00890B6E2FF00B6E2FF10B6E2F0032F2017F
:100EEC0020000D08F0000230F036890B7A2F7008C4
:100EFC008D000230F1000430F000BA30890B842FE1
:100F0C00F00B842FF10B842F00320130F0007008AD
:100F1C00F20703307202031C942F952F762F0800D2
:100F2C0020008D0186314126873120008C1D9F2F9A
:100F3C00A02FA32FF601F5018D010C1DA62FA72FB5
:100F4C00AC2F0130F4007408F607F5010C1EAF2F1E
:100F5C00B02FB52FF6010130F4007408F5077603B5
:100F6C00031DB92FBA2FBD2F8631C1268731023010
:100F7C007606031DC22FC32FC62F8631EF2687316D
:100F8C0003307606031DCB2FCC2FCF2F873136277E
:100F9C00873104307606031DD42FD52FD62FF601BA
:100FAC007503031DDA2FDB2FDE2F86315F26873189
:100FBC0002307506031DE32FE42FE72F86317E26C2
:100FCC00873103307506031DEC2FED2FF02F863182
:100FDC009D26873104307506031DF52FF62F9B2FA8
:100FEC00F5019B2F80310228F501F601F701200055
:040FFC008731962F74
:020000040001F9
:04000E00E43FFF3E8E
:00000001FF
