:08000000803102288731FD2F39
:100E5A00163021009700080062302100990098019D
:100E6A002200960108009B3020009B009A019110F5
:100E7A0007309C0008003C30250093009501803023
:100E8A0094000130960092014D309100FC309E058D
:100E9A00080087315E2787318731312787318731CB
:100EAA002D27873187314027873187313827873186
:100EBA00080022008C018D01FF3021008C00C03017
:100ECA008D00F63023008D0003308C0024008D0144
:100EDA008C012100951722009D019E0108007108CE
:100EEA00F3007008F200F336F20CF336F20C7208D3
:100EFA002500910070080339F2000430F235890B9D
:100F0A00832F1308CF3972049300080087314E27C4
:100F1A0087318731402787315030F5000030F6009D
:100F2A000130250096007608F1007508F000873137
:100F3A00742787314130F400EE30890BA22FF40B6D
:100F4A00A22F003220000C1DAB2FAC2FC12F750829
:100F5A00FD3EF500FF30763DF6007608803AF40053
:100F6A0080307402031DBB2F163075020318BE2F82
:100F7A00BF2FC12F20000D1620008C1DC52FC62F94
:100F8A00DB2F7508033EF5000030763DF600760843
:100F9A00803AF40080307402031DD52F5130750257
:100FAA00031CD82FD92FDB2F20000D157608803A85
:100FBA00F40080307402031DE42F16307502031CFE
:100FCA00E72FE82FF52F7608803AF4008030740274
:100FDA00031DF12F51307502031CF42FF52F982FA2
:100FEA0020000C1EF92FFA2F952F912F80310228FD
:060FFA00200087318B2F5F
:020000040001F9
:08000000FF3FFF3FFF3FFF3F00
:04000E00E43FFF3E8E
:00000001FF
