:020000040000FA
:040000008031132810
:100008007E1480318B1E09280A2811280B1D0D2803
:100018000E28112880311B2080317E100900803184
:100028001528F601F7017E1020008031862801305E
:10003800F6070030F73D0B11720820009500700894
:1000480071040319282829282E2871088A007008A5
:100058000A008031643076067704031D3428352879
:100068004E28031022008D1F031403183C283F2834
:1000780022008D17412822008D1303100D1F031431
:10008800031847284A2822000D174C2822000D1370
:10009800F601F701080021001508C0391738950046
:1000A8003D30200095003D30F5007508F2000B1139
:1000B8008B169E30F3000030F4008031952080319B
:1000C800080022008C018D01FF3021008C008D0179
:1000D80023008D011F308C0024008D018C0121002C
:1000E800951722009D019E0108008031652080310E
:1000F80080318E20803180319A20803180314F20AC
:10010800803108008031792080318B170B178B28BC
:10011800803113286A302100990098012200960145
:1001280008007408F1007308F00008001630210078
:060138009700080008001A
:020000040001F9
:04000E00E43FFF3E8E
:00000001FF
