:040000008031132810
:100008007E1480318B1E09280A2811280B1D0D2803
:100018000E28112880312F2080317E100900803170
:100028001528813138218031F4008131392180311E
:10003800F50081313A218031F60081313B21803150
:10004800F700F001F101F201F301A201A3017E1012
:100058002000813123290B117C08200095002008FD
:1000680021040319382839283E2821088A00200845
:100078000A00803120000C1D42284328EB2801305B
:10008800A2000030A30001308D00F001F1017108D9
:10009800803AF80080307802031D54280730700237
:1000A800031C572858285928692820000D358D0029
:1000B8004130F800EE30890B5F28F80B5F280032DA
:1000C8000130F0070030F13D4B28F001F1017108D3
:1000D800803AF80080307802031D742807307002D7
:1000E800031C772878287928892820000D368D0068
:1000F8004130F800EE30890B7F28F80B7F2800325A
:100108000130F0070030F13D6B2820008C1D8D2850
:100118008E2847288C1D91289228EB28F201F3019C
:100128007308803AF80080307802031D9D28033058
:100138007202031CA028A128A228BC2876087404EF
:1001480020008D007635F600770DF700750D750CDB
:10015800F500740CF4004130F800EE30890BB22839
:10016800F80BB22800320130F2070030F33D942832
:10017800F201F3017308803AF80080307802031D19
:10018800C72803307202031CCA28CB28CC28E628CB
:100198007608740420008D00770D770CF700760C34
:1001A800F6007435F400750DF5004130F800EE30B6
:1001B800890BDC28F80BDC2800320130F20700300C
:1001C800F33DBE2820000C1DEA28EB2892280800E1
:1001D80021001508C03917389500EC30200095002B
:1001E800EC30FB007B08FC000B118B164030F9004B
:1001F8000130FA00813132218031080022008C015F
:100208008D01FF3021008C008D0123008D011330FA
:100218008C0024008D018C012100951722009D017E
:100228009E01080081310221813181312B218131E8
:1002380081313C2181318031EC20813108008131CC
:10024800162181318B170B172829803113286A3022
:100258002100990098012200960108007A082000E0
:10026800A1007908A00008000834003410340034D4
:0A027800163021009700080008006E
:020000040001F9
:04000E00E43FFF3E8E
:00000001FF
