:020000040000FA
:08000000803102288731FB2F3B
:100D8A0016302100970008006A3021009900980166
:100D9A002200960108008631DA2686318631C92674
:100DAA0086318631C5268631080022008C018D01E4
:100DBA00FF3021008C008D0123008D0113308C003F
:100DCA0024008D018C012100951722009D019E01AE
:100DDA000800013020008D00F10120000D358D0042
:100DEA008230F000DE30890BF82EF00BF82E01303D
:100DFA00F0007008F10707307102031C052F062F57
:100E0A00F22EF10120000D368D008230F000DE3026
:100E1A00890B0D2FF00B0D2F0130F0007008F10730
:100E2A0007307102031C1A2F1B2F072F08002000FE
:100E3A008D018631D026873120008C1D252F262F43
:100E4A00282FF5018D010C1D2B2F2C2F302F01304F
:100E5A00F4007408F5077503031D342F352F382F56
:100E6A008631EE26873102307506031D3D2F3E2F4F
:100E7A00412F87315427873103307506031D462FCA
:100E8A00472F4A2F87319B27873104307506031D68
:100E9A004F2F502F212FF501212F8031022810309A
:100EAA00F0007008F1000830F0007008F200F30159
:100EBA007108720420008D007135F0007008F1008D
:100ECA007236F0007008F2004130F000EE30890B03
:100EDA006C2FF00B6C2F00320130F0007008F30712
:100EEA0003307302031C7A2F7B2F5D2FF3017108E5
:100EFA00720420008D007136F0007008F10072351E
:100F0A00F0007008F2004130F000EE30890B8B2FB0
:100F1A00F00B8B2F00320130F0007008F30703301A
:100F2A007302031C992F9A2F7C2F0800023020008D
:100F3A008D000230F1000430F000BA30890BA32F83
:100F4A00F00BA32FF10BA32F0032F20120000D08A2
:100F5A00F0000130F035FF3E031DAF2F70358D00D4
:100F6A000230F1000430F000BA30890BBA2FF00BCE
:100F7A00BA2FF10BBA2F00320130F0007008F207D5
:100F8A0003307202031CCA2FCB2FAB2F4030200034
:100F9A008D000230F1000430F000BA30890BD32FF3
:100FAA00F00BD32FF10BD32F0032F20120000D08E2
:100FBA00F0000230F036890BDF2F70088D00023006
:100FCA00F1000430F000BA30890BE92FF00BE92F59
:100FDA00F10BE92F00320130F0007008F2070330FC
:100FEA007202031CF92FFA2FDB2F0800F501F60114
:060FFA00200087311C2FCE
:020000040001F9
:04000E00E43FFF3E8E
:00000001FF
