:08000000803102288731F12F45
:10062E000834013008000530080020009111080040
:10063E0024009512080021009111080024001614C0
:10064E000800240096140800240016150800240043
:10065E0096150800240011080800200091150800C6
:10066E002400961616160800240096121616080078
:10067E001630210097000800F00070082400910049
:10068E0008002000BC10BB010E3008008331282367
:10069E008331013008008331282383310230080072
:1006AE008331282383310130080083312B2383319A
:1006BE000030080083313B2383310530080083313D
:1006CE00372383310A3008008331372383310930D1
:1006DE0008002000BC10BB010E3008000030843131
:1006EE00F824833108002400160E890C890C013978
:1006FE0008002000911D842B852B802B08006400A0
:10070E0080010131890B872B003420003C1083318E
:10071E002E238331043008007A302100990098018D
:10072E0022009601080020003C1436358331432305
:10073E0083310330080020003C140314360D83313E
:10074E0043238331053008002400940108309500BE
:10075E00960127309200951208007608F100750870
:10076E00F0007708F8007808F20000308531362561
:10077E0083310800C82B8331802383318531842552
:10078E0083312000BC18CC2BCD2BC22B08002400AB
:10079E00951AD22BD32BDA2B9401083095009601A3
:1007AE0027309200951608007608F1007508F000C3
:1007BE007708F8007808F20002308531362583314B
:1007CE0008008331AB238331843197248331833105
:1007DE009323833183313F2383310800F3002000BC
:1007EE00BC1DFA2BFB2B042C7308F2007208B70009
:1007FE007108B9007008B800BC1108002000CC00C8
:10080E003D08CB004B08CC044C088431592484316C
:10081E0020004C0884316D24843108000230F00031
:10082E000030F10079088331F52384310030F50072
:10083E00F600F7018331B42384310430080001300F
:10084E00F0000030F10079088331F5238431003057
:10085E00F500F600F7018331B4238431023008002D
:10086E000230F0000030F10079088331F523843135
:10087E000030F500F600F7018331B42384310230E5
:10088E0008000130F0000030F10079088331F523C3
:10089E0084310030F500F600F7018331B423843142
:1008AE00043008002000C80048085504C700470857
:1008BE00C9004930C7004708C3000130C4000030EA
:1008CE00C500540885315C25843108002000CA001B
:1008DE004A08043884315924843100320032200011
:1008EE004A08FB388431592484314230890B7D2CDF
:1008FE00003208002000CE00BD014E08F0398431D0
:10090E000524843120004E08CD000330CD35FF3E46
:10091E00031D8D2C4D35F0398431052484310800AA
:10092E0022008C018D01FF3021008C00FF308D00E4
:10093E00EC3023008D001F308C0024008D018C01C3
:10094E002100951722009D019E0108002000CE0077
:10095E00BD01BD0A4E08F0398431052484312000D2
:10096E004E08CD000330CD35FF3E031DBA2C4D355C
:10097E00F039843105248431080079088600870116
:10098E00403FF000413FF1007908023E86008701AA
:10099E0001088331F52384310030F500F600F701AC
:1009AE008331B423843102300800F101F10A2000B2
:1009BE00BC18E22CE32CF62C3C11FF30F000700832
:1009CE00B60083311C238431833122238431833159
:1009DE001F23843120003B08F0007008F1007108DD
:1009EE0008002000C100C201C20ABC18FF2C002D55
:1009FE00142DBC14C20141080319062D072D0A2D12
:100A0E00BA01BA0A0E2D0230FD007D08BA008331FC
:100A1E00252384318331C12384312000420808000C
:100A2E002000D201D3012A2D4F085207840050080E
:100A3E00533D850000088431AD24853101302000FE
:100A4E00D2070030D33D4F08520784005008533D63
:100A5E0085001200031D342D352D1B2D0800F400CA
:100A6E007008710403193C2D3D2D4E2D7435203E1A
:100A7E00860087017008C03F7108C13F7208F300FD
:100A8E0074082C3E86008701730881005B2D743537
:100A9E00203E860087011830C03F0330C13F7408E6
:100AAE002C3E86008701810108002000C600200030
:100ABE004608863139268531003A0319672D682D8F
:100ACE005E2D20004508F1004408F00043088331F4
:100ADE00F52385310030F500F600F7018331DB2375
:100AEE0085318331752385318431DC248531013A9A
:100AFE000319822D832D7B2D080083311C23853114
:100B0E0020003C1C8B2D8C2D992D83317A23853121
:100B1E00003A0319932D942D992D0F302000BE000D
:100B2E003E08BA0020003A08BE00BF01BE35BF0D18
:100B3E0000303E07840088303F3D8500013F8A002B
:100B4E00003F0A0085312000C0004008BA000800AE
:100B5E0020003C100230FA007A08BB00BE2D833113
:100B6E0057238531DA2D83315C238531DA2D2E081A
:100B7E00FA007A08F9000430203E86008701413FD2
:100B8E008A00403F0A008531FB00FC017C08003AD8
:100B9E000319D22DBA2D7B08023A0319B62D013A4C
:100BAE000319B62DBA2D08002000BC15EB2D83318C
:100BBE0057238531092E8331342385310330092E95
:100BCE0083315C238531092E2C08FA007A08F9004E
:100BDE0021088A0020080A008531FB00FC017C08F0
:100BEE00003A0319FB2DE72D7B08013A0319E72D77
:100BFE00033A0319DE2D013A0319DE2D073A0319C4
:100C0E00E22DE72D08002000D200252E4F08BF3E12
:100C1E00843181248631382E4F08933E84318124CD
:100C2E008631382E4F08D33E843181248631382EBA
:100C3E004F087F3E843181248631382E5208D000F1
:100C4E00D1015108003A03192D2E1F2E5008023AD9
:100C5E0003190D2E013A0319132E073A0319192EF3
:100C6E001F2E0800F100F201F20A20003C19402E5E
:100C7E00412E712E7108F0007008B600BC103C15A4
:100C8E003C100E30F0007008BA00F430B4000130A1
:100C9E00B500BC151830A0000330A100AC0118300F
:100CAE00A2000330A300AD011830A4000330A5004C
:100CBE00AE011830A6000330A700AF011A30A8000D
:100CCE000330A900B00183311C2386318331CE233A
:100CDE008631F20172080800833131238631FA0021
:100CEE0020003708860087017A0881000130FA005B
:100CFE007A08B7070130B8020030B93B380839041A
:100D0E0003198A2E8B2E902E83313B23863105308C
:100D1E00B82EBC159A2E83316B238631B82E8331B3
:100D2E0066238631B82E2C08FA007A08F9002108BD
:100D3E008A0020080A008631FB00FC017C08003A7C
:100D4E000319AA2E962E7B08013A0319962E033A02
:100D5E000319922E013A0319922E073A0319962E71
:100D6E00962E08008331E8238631273087315427A9
:100D7E0086312000CF01CF0A013086310A26863116
:100D8E0041302000CF008830D000853117258631C4
:100D9E002000CF01CF0A023086310A26863120305C
:100DAE002000CF008830D0008531172586312000F5
:100DBE00CF01CF0A033086310A268631513020000A
:100DCE00CF008830D0008531172586312000CF0125
:100DDE00CF0A043086310A26863131302000CF000A
:100DEE008830D000853117258631C02E80310228FB
:100DFE0083317A238631003A0319062F072F372FB6
:100E0E00142F83314D238631532F83315223863154
:100E1E00532F83315C238631532F20002F08FA0085
:100E2E007A08F9000630203E86008701413F8A008D
:100E3E00403F0A008731FB00FC017C08003A031991
:100E4E00292F102F7B08013A0319102F033A03198B
:100E5E00082F013A03190C2F073A0319102F102FE0
:100E6E0020003C101730203E86008701403F840052
:100E7E008501810A00088331432386310130200029
:100E8E00B8020030B93B38083904031D4F2F502FDC
:100E9E00522F0630532F033008002000D100510886
:100EAE00CF004F08D40002302000D0000430CF0015
:100EBE00BA30890B602FCF0B602FD00B602F000044
:100ECE00003084315924873103302000D0000330A4
:100EDE00CF004530890B712FCF0B712FD00B712F97
:100EEE002000BD01303084310524873118302000B8
:100EFE00CF005F30890B812FCF0B812F30308431A3
:100F0E000524873118302000CF005F30890B8D2FDC
:100F1E00CF0B8D2F3030843105248731C830890BAB
:100F2E00962F2030843105248731C830890B9D2FB0
:100F3E0002308431812487311A302000CF00F830FE
:100F4E00890BA72FCF0BA72F0000283084318124C7
:100F5E00873102302000D0000430CF00BA30890B28
:100F6E00B62FCF0BB62FD00BB62F00000C3084311E
:100F7E008124873102302000D0000430CF00BA30F7
:100F8E00890BC72FCF0BC72FD00BC72F00000130F7
:100F9E0084318124873102302000D0000430CF000C
:100FAE00BA30890BD82FCF0BD82FD00BD82F0000EB
:100FBE00063084318124873102302000D000043085
:100FCE00CF00BA30890BE92FCF0BE92FD00BE92FC9
:100FDE0000000800833117238731D50020308400AC
:100FEE00003085001E308331862387312000863104
:100FFE00B92E48340334A23403349A340334FF3404
:10100E000634733406348C340334DB3405344D34F7
:10101E00033452340334573403345C3403346134B0
:10102E000334663403346B34033470340334AF3416
:10103E00053420345334653463346F346E34643481
:10104E0061342034523469346734613420342134AD
:10105E002034003420345134753461347234743495
:10106E00613420345234693467346134203421348D
:10107E002034003420345034723469346D34613489
:10108E0020345234693467346134203421342134AD
:10109E002034003420345434653472347A3461345C
:1010AE00203452346934673461342034213420348E
:0210BE000034FC
:020000040001F9
:08000000FF3FFF3FFF3FFF3F00
:04000E00E43FFF3E8E
:00000001FF
