:040000008031132810
:100008007E1480318B1D09280A2811280B1C0D2805
:100018000E28112880319A2080317E100900803105
:100028001528F501F601F701F8017E10200080314E
:10003800FB280230F1000430F000BA30890B222886
:10004800F00B2228F10B22280032043020008D000A
:100058000230F2000030F30020000D358D008230B0
:10006800F000DE30890B3628F00B36280130F20715
:100078000030F33D7308803AF00080307002031DB1
:10008800472807307202031C4A284B2830280230C0
:10009800F2000030F30020000D368D008230F000B1
:1000A800DE30890B5528F00B55280130F207003057
:1000B800F33D7308803AF00080307002031D662813
:1000C80007307202031C69286A284F2820008D0116
:1000D800080022008C018D01FF3021008C000330C4
:1000E8008D0023008D011F308C0024008D018C01B0
:1000F8002100951722009D019E01270016109610D9
:1001080015109510141494141B302000A20001300F
:10011800A3008131102180311A302000A200013063
:10012800A30081310A2180318B1508002700161C95
:100138009E289F28AE288031E32080310130F707C0
:100148000030F83D1A30F400F830890BA928F40B78
:10015800A92800322700961CB228B328C22880316B
:10016800C32080310130F5070030F63D1A30F40025
:10017800F830890BBD28F40BBD28003208000A307E
:1001880077067804031DC928CA28D42805307506BF
:100198007604031DD028D128D42880311D20803131
:1001A8002000200821040319DA28DB28E028210888
:1001B8008A0020080A008031270096100800790874
:1001C8007A040319E828E928EE287A088A007908C9
:1001D8000A00803127001610080080316D20803118
:1001E800813103218031813116218031080080312D
:1001F800F12080318B170B170029803113286A30C2
:100208002100990098012200960108002000230887
:10021800A1002208A000080020002308FA002208F4
:10022800F9000800163021009700080008000800AF
:020000040001F9
:04000E00E43FFF3E8E
:00000001FF
