:08000000803102288731FD2F39
:100B680016302100970008006A302100990098018A
:100B78002200960108007C3020009B009A01911009
:100B880006309C0008001C30250093009501803039
:100B980094000F30960092013E309100FC309E0583
:100BA80008008531E52585318531B82585318531C0
:100BB800B42585318531C72585318531BF258531F6
:100BC800080022008C018D01FF3021008C001730B5
:100BD8008D00163023008D0003308C0024008D0119
:100BE8008C012100951722009D019E0108007108C3
:100BF800F3007008F200F336F20CF336F20C7208C8
:100C08002500910070080339F2000430F235890B91
:100C18000A2E1308CF397204930008008531D525B0
:100C280086318531C7258631192E22008D118D1206
:100C38000D138D138D2E0230250096000030F00024
:100C4800F1008531FB2586310330F5008A30F40048
:100C58005630890B2D2EF40B2D2EF50B2D2E6330CF
:100C6800F0000030F1008531FB2586310330F500B6
:100C78008A30F4005630890B3F2EF40B3F2EF50BCB
:100C88003F2EC730F0000030F1008531FB2586315A
:100C98000330F5008A30F4005630890B512EF40BDE
:100CA800512EF50B512E2B30F0000130F10085311B
:100CB800FB2586310330F5008A30F4005630890B65
:100CC800632EF40B632EF50B632E8F30F00001308A
:100CD800F1008531FB2586310330F5008A30F400B8
:100CE8005630890B752EF40B752EF50B752EF330D7
:100CF800F0000130F1008531FB2586310330F50025
:100D08008A30F4005630890B872EF40B872EF50BAA
:100D1800872E20000C1D912E922E052F0C1E952E2D
:100D2800962E1F2E052F043025009600F330F00074
:100D38000130F1008531FB2586310330F5008A301A
:100D4800F4005630890BA62EF40BA62EF50BA62E12
:100D58008F30F0000130F1008531FB2586310330FA
:100D6800F5008A30F4005630890BB82EF40BB82EF3
:100D7800F50BB82E2B30F0000130F1008531FB2542
:100D880086310330F5008A30F4005630890BCA2EBC
:100D9800F40BCA2EF50BCA2EC730F0000030F10054
:100DA8008531FB2586310330F5008A30F400563052
:100DB800890BDC2EF40BDC2EF50BDC2E6330F000F7
:100DC8000030F1008531FB2586310330F5008A308B
:100DD800F4005630890BEE2EF40BEE2EF50BEE2EAA
:100DE8000030F000F1008531FB2586310330F50035
:100DF8008A30F4005630890BFF2EF40BFF2EF50BCA
:100E0800FF2E20008C19092F0A2F972E792F0830D2
:100E1800250096000030F000F1008531FB25863171
:100E28000330F5008A30F4005630890B192FF40B83
:100E3800192FF50B192F6330F0000030F1008531C0
:100E4800FB2586310330F5008A30F4005630890BD3
:100E58002B2FF40B2B2FF50B2B2FC730F000003066
:100E6800F1008531FB2586310330F5008A30F40026
:100E78005630890B3D2FF40B3D2FF50B3D2F2B30B2
:100E8800F0000130F1008531FB2586310330F50093
:100E98008A30F4005630890B4F2FF40B4F2FF50B87
:100EA8004F2F8F30F0000130F1008531FB2586315E
:100EB8000330F5008A30F4005630890B612FF40BAB
:100EC800612FF50B612FF330F0000130F10085310F
:100ED800FB2586310330F5008A30F4005630890B43
:100EE800732FF40B732FF50B732F20000C1E7D2F1F
:100EF8007E2FF12F0C1D812F822F0B2FF12F013008
:100F080025009600F330F0000130F1008531FB2513
:100F180086310330F5008A30F4005630890B922F61
:100F2800F40B922FF50B922F8F30F0000130F10067
:100F38008531FB2586310330F5008A30F4005630C0
:100F4800890BA42FF40BA42FF50BA42F2B30F00042
:100F58000130F1008531FB2586310330F5008A30F8
:100F6800F4005630890BB62FF40BB62FF50BB62FBD
:100F7800C730F0000030F1008531FB2586310330A1
:100F8800F5008A30F4005630890BC82FF40BC82FAF
:100F9800F50BC82F6330F0000030F1008531FB25D8
:100FA80086310330F5008A30F4005630890BDA2F89
:100FB800F40BDA2FF50BDA2F0030F000F100853151
:100FC800FB2586310330F5008A30F4005630890B52
:100FD800EB2FF40BEB2FF50BEB2F20000C1DF52F4F
:100FE800F62F192E0C1AF92FFA2F832F192E80316C
:080FF800022820008631122EB0
:020000040001F9
:08000000FF3FFF3FFF3FFF3F00
:04000E00E43FFF3E8E
:00000001FF
