:020000040000FA
:08000000803102288731FD2F39
:100C4C0016302100970008006A30210099009801A5
:100C5C0022009601080086313B26863186312A26F1
:100C6C008631863126268631080022008C018D01C2
:100C7C00FF3021008C0001308D0023008D010330EA
:100C8C008C0024008D018C012100951722009D0100
:100C9C009E01080086313126863120000C1D572E0E
:100CAC00582E272F0130F1070030F23DF32E013082
:100CBC008D008230F000DE30890B622EF00B622E3C
:100CCC00272F02308D008230F000DE30890B6C2E25
:100CDC00F00B6C2E272F03308D008230F000DE30AD
:100CEC00890B762EF00B762E272F04308D00823058
:100CFC00F000DE30890B802EF00B802E272F053074
:100D0C008D008230F000DE30890B8A2EF00B8A2E9B
:100D1C00272F06308D008230F000DE30890B942EA8
:100D2C00F00B942E272F07308D008230F000DE3030
:100D3C00890B9E2EF00B9E2E272F08308D008230B3
:100D4C00F000DE30890BA82EF00BA82E272F0930CF
:100D5C008D008230F000DE30890BB22EF00BB22EFB
:100D6C00272F0A308D008230F000DE30890BBC2E2C
:100D7C00F00BBC2E272F0B308D008230F000DE30B4
:100D8C00890BC62EF00BC62E272F0C308D0082300F
:100D9C00F000DE30890BD02EF00BD02E272F0D302B
:100DAC008D008230F000DE30890BDA2EF00BDA2E5B
:100DBC00272F0E308D008230F000DE30890BE42EB0
:100DCC00F00BE42E272F0F308D008230F000DE3038
:100DDC00890BEE2EF00BEE2E272F7208003A03191A
:100DEC00F82E272F7108013A03195D2E033A0319C7
:100DFC00672E013A0319712E073A03197B2E013A1B
:100E0C000319852E033A03198F2E013A0319992ED3
:100E1C000F3A0319A32E013A0319AD2E033A031905
:100E2C00B72E013A0319C12E073A0319CB2E013AFA
:100E3C000319D52E033A0319DF2E013A0319E92EB3
:100E4C00272F20008C1D2B2F2C2F532EFF30F1071A
:100E5C00FF30F23DC72F01308D008230F000DE30C4
:100E6C00890B362FF00B362F532E02308D0082302B
:100E7C00F000DE30890B402FF00B402F532E033047
:100E8C008D008230F000DE30890B4A2FF00B4A2F98
:100E9C00532E04308D008230F000DE30890B542F3D
:100EAC00F00B542F532E05308D008230F000DE30C5
:100EBC00890B5E2FF00B5E2F532E06308D00823087
:100ECC00F000DE30890B682FF00B682F532E0730A3
:100EDC008D008230F000DE30890B722FF00B722FF8
:100EEC00532E08308D008230F000DE30890B7C2FC1
:100EFC00F00B7C2F532E09308D008230F000DE3049
:100F0C00890B862FF00B862F532E0A308D008230E2
:100F1C00F000DE30890B902FF00B902F532E0B30FE
:100F2C008D008230F000DE30890B9A2FF00B9A2F57
:100F3C00532E0C308D008230F000DE30890BA42F44
:100F4C00F00BA42F532E0D308D008230F000DE30CC
:100F5C00890BAE2FF00BAE2F532E0E308D0082303E
:100F6C00F000DE30890BB82FF00BB82F532E0F305A
:100F7C008D008230F000DE30890BC22FF00BC22FB7
:100F8C00532E7208003A0319CC2F532E7108013AD4
:100F9C000319312F033A03193B2F013A0319452F3B
:100FAC00073A03194F2F013A0319592F033A031922
:100FBC00632F013A03196D2F0F3A0319772F013A5A
:100FCC000319812F033A03198B2F013A0319952F1B
:100FDC00073A03199F2F013A0319A92F033A031952
:100FEC00B32F013A0319BD2F532E80310228200054
:040FFC008631502EBC
:020000040001F9
:04000E00E43FFF3E8E
:00000001FF
