:08000000803102288731F02F46
:10019E0021009D14080016302100970008003F3002
:1001AE0020008D000800063020008D0008005B3016
:1001BE0020008D0008004F3020008D0008006630B2
:1001CE0020008D0008006D3020008D0008007D306D
:1001DE0020008D000800073020008D0008007F30C1
:1001EE0020008D000800673020008D0008006A3066
:1001FE00210099009801220096010800C0302100CC
:10020E009E009B019C0111309D00080081311A2136
:10021E0081318031FE2081318031D2208131813196
:10022E0005218131080022008C018D01FC30210056
:10023E008C008D0123008D011C308C0024008D015B
:10024E008C012100951722009D019E010800F800E7
:10025E00F401F5017008F200F3017208F60073085C
:10026E00F700781C3B293C2940297608F4077708CB
:10027E00F53D0130F635F70D890B41290310F80CC9
:10028E007808031D4B294C2938297508F10074088C
:10029E00F0000800F601F31F552956295D29F209D1
:1002AE00F309F20A0319F30AF601F60AF11F60299F
:1002BE0061296629F009F109F00A0319F10A70089B
:1002CE00710403196B296C299529F501F50A782912
:1002DE000130F035F10D890B70290130F4007408EE
:1002EE00F507F11F7B297C296F2971087302031D05
:1002FE00822970087202031C852986298A297008B2
:10030E00F2027108F33B0130F136F00C890B8B29A8
:10031E000130F502031D942995297C2976080319CD
:10032E0099299A299F29F209F309F20A0319F30A66
:10033E007308F1007208F000080020000C148C10F5
:10034E0070087104031DAC29AD29B729BF308D008B
:10035E002730F200F530890BB229F20BB2290000DA
:10036E0070037104031DBC29BD29C82986302000E5
:10037E008D002730F200F530890BC329F20BC3290B
:10038E000000023070067104031DCE29CF29DA2930
:10039E00DB3020008D002730F200F530890BD52997
:1003AE00F20BD5290000033070067104031DE029FD
:1003BE00E129EC29CF3020008D002730F200F530F6
:1003CE00890BE729F20BE72900000430700671044F
:1003DE00031DF229F329FE29E63020008D00273077
:1003EE00F200F530890BF929F20BF929000008000B
:1003FE00F601F11F032A042A0B2AF009F109F00A6B
:10040E000319F10AF601F60AF31F0E2A0F2A182A0B
:10041E00F209F309F20A0319F30A0130F400740821
:10042E00F606F701F8017008710403191F2A202A35
:10043E004F2AF501F50A2C2A0130F035F10D890B02
:10044E00242A0130F4007408F507F11F2F2A302AF0
:10045E00232A0130F735F80D890B312A7108730202
:10046E00031D3B2A70087202031C3E2A3F2A442AAF
:10047E007008F2027108F33B77140130F136F00C7C
:10048E00890B452A0130F502031D4E2A4F2A302AC8
:10049E0076080319532A542A592AF709F809F70A34
:1004AE000319F80A7808F1007708F0000800031025
:1004BE0020003C0D3D0DBE003E08C4004408031D47
:1004CE00692A6A2A732A0030BD000030BC00003051
:1004DE00BB000030BA00D22A3A08BE003B08BF006B
:1004EE003C08C0003D08C1001F30C136C00CBF0C17
:1004FE00BE0C890B7C2A3E08C2004208C300BC1702
:10050E00FF30BA05FF30BB05FF30BC050030BD051E
:10051E009630C402C41F942A952AAD2A4408803A04
:10052E00973E03189B2A9C2A9D2A6A2A0130BD36C3
:10053E00BC0CBB0CBA0C890B9E2A0130BE003E08C7
:10054E00C407031DAB2AAC2A9D2AC22A20304402BE
:10055E00031CB22AB32ABD2A6A2A0130BA35BB0D52
:10056E00BC0DBD0D890BB52A0130C4024408031D14
:10057E00C12AC22AB42A43080319C62AC72AD22A74
:10058E00BA09BB09BC09BD09BA0A0319BB0A03198A
:10059E00BC0A0319BD0A0800F80078080319D82A06
:1005AE00D92AED2AF31FDC2ADD2AED2A7009FA007A
:1005BE007109FB007209FC007309FD00FA0A0319A8
:1005CE00FB0A0319FC0A0319FD0AF52A7308FD003C
:1005DE007208FC007108FB007008FA0073087204C0
:1005EE0071047004031DFC2AFD2A062B0030F30053
:1005FE000030F2000030F1000030F0007E2B96301B
:10060E00F4007408F900162B0130F4007408F90791
:10061E000130FD36FC0CFB0CFA0C890B102BFE3056
:10062E007D05031D1B2B1C2B0B2B302B0130F400D7
:10063E007408F9070130FA070030FB3D0030FC3D2D
:10064E000030FD3D0130FD36FC0CFB0CFA0C890B25
:10065E002A2BFF307D05031D352B362B1D2B402BF2
:10066E000130F9020130FA35FB0DFC0DFD0D890B41
:10067E003A2BFC1B432B442B4A2B023079020318D6
:10068E00492B4A2B372B79184D2B4E2B562BFF30DF
:10069E00FA05FF30FB057F30FC05FF30FD0503102A
:1006AE00F90C7908F400F501F601F7011830F4356C
:1006BE00F50DF60DF70D890B5E2B7408FA0475080F
:1006CE00FB047608FC047708FD0478080319702BE8
:1006DE00712B762BF31F742B752B762BFD177D0844
:1006EE00F3007C08F2007B08F1007A08F0000800A5
:1006FE0081310D2183318131052183318031CF202C
:10070E00833121009D188C2B8D2B882B1C082000EB
:10071E00C500C6014508C600C50121001B08200002
:10072E004507F00046080318460AF100F201F11BD6
:10073E00F2037208F30001308231D3228331730841
:10074E002000A7007208A6007108A5007008A4007A
:10075E003E30A300EB30A2008530A1001F30A00078
:10076E0085319925833120002308BD002208BC0065
:10077E002108BB002008BA0082315E22833120009E
:10078E003B08D1003A08D0006430F0000030F10090
:10079E005108F3005008F2008131FF2183317108B6
:1007AE002000CF007008CE006430F0000030F10061
:1007BE005108F3005008F200813151218331710844
:1007CE002000C9007008C8000A30F0000030F100A7
:1007DE004908F3004808F2008131FF218331710886
:1007EE002000CD007008CC000A30F0000030F1007F
:1007FE004908F3004808F200813151218331710814
:10080E002000CB007008CA004F08F1004E08F0001F
:10081E008131A421833120004D08F1004C08F000F5
:10082E008431E32483311A302000C500F830890B5F
:10083E001E2CC50B1E2C000020004B08F1004A0890
:10084E00F00084312E248331852B80310228200044
:10085E000C108C1070087104031D362C372C412C93
:10086E003F308D002730F200F530890B3C2CF20B17
:10087E003C2C000070037104031D462C472C522C97
:10088E00063020008D002730F200F530890B4D2CFC
:10089E00F20B4D2C0000023070067104031D582C13
:1008AE00592C642C5B3020008D002730F200F5307F
:1008BE00890B5F2CF20B5F2C000003307006710465
:1008CE00031D6A2C6B2C762C4F3020008D002730A8
:1008DE00F200F530890B712CF20B712C00000430F4
:1008EE0070067104031D7C2C7D2C882C8031E62033
:1008FE0084312730F200F530890B832CF20B832CD8
:10090E000000053070067104031D8E2C8F2C9A2C5E
:10091E008031EA2084312730F200F530890B952C96
:10092E00F20B952C0000063070067104031DA02CEE
:10093E00A12CAC2C8031EE2084312730F200F53022
:10094E00890BA72CF20BA72C000007307006710440
:10095E00031DB22CB32CBE2C8031F22084312730F3
:10096E00F200F530890BB92CF20BB92C00000830CF
:10097E0070067104031DC42CC52CD02C8031F620BA
:10098E0084312730F200F530890BCB2CF20BCB2CB7
:10099E000000093070067104031DD62CD72CE22CF2
:1009AE008031FA2084312730F200F530890BDD2CAE
:1009BE00F20BDD2C0000080020000C108C147008C7
:1009CE007104031DEB2CEC2CF72C8031D6208431D6
:1009DE002730F200F530890BF22CF20BF22C0000CE
:1009EE0070037104031DFC2CFD2C082D8031DA20C0
:1009FE0084312730F200F530890B032DF20B032DD5
:100A0E000000023070067104031D0E2D0F2D1A2DDD
:100A1E008031DE2084312730F200F530890B152D20
:100A2E00F20B152D0000033070067104031D202DEE
:100A3E00212D2C2D8031E22084312730F200F5302B
:100A4E00890B272DF20B272D000004307006710440
:100A5E00031D322D332D3E2D8031E620843127307B
:100A6E00F200F530890B392DF20B392D00000530CF
:100A7E0070067104031D442D452D502D8031EA2042
:100A8E0084312730F200F530890B4B2DF20B4B2DB4
:100A9E000000063070067104031D562D572D622D71
:100AAE008031EE2084312730F200F530890B5D2D38
:100ABE00F20B5D2D0000073070067104031D682DCA
:100ACE00692D742D8031F22084312730F200F530FB
:100ADE00890B6F2DF20B6F2D00000830700671041C
:100AEE00031D7A2D7B2D862D8031F6208431273003
:100AFE00F200F530890B812DF20B812D00000930AB
:100B0E0070067104031D8C2D8D2D982D8031FA20C9
:100B1E0084312730F200F530890B932DF20B932D93
:100B2E0000000800200023088039A8002808AD0026
:100B3E002335A8002808B300A21FA62DA72DA82D87
:100B4E00331433080319AC2DAD2DBC2D330A031D00
:100B5E00B12DB22DBA2D0030A3000030A20000300E
:100B6E00A1000030A000A217C42D0030A300003059
:100B7E00A2000030A1000030A00027088039A80094
:100B8E002808AD062735A8002808B200A61FD02DCC
:100B9E00D12DD22D321432080319D62DD72DE62D94
:100BAE00320A031DDB2DDC2DE42D0030A7000030B2
:100BBE00A6000030A5000030A400A617EE2D0030D0
:100BCE00A7000030A6000030A5000030A4003208B7
:100BDE000319F22DF32DF82D3308031DF72DF82DE3
:100BEE00012E0030A3000030A2000030A100003022
:100BFE00A000EF2F2008A8002808F0002608813159
:100C0E002E21853171082000B9007008B80038080F
:100C1E00A800A901AA01AB012B08B1002A08B00057
:100C2E002908AF002808AE003908A800A901AA01BA
:100C3E00AB012B08B7002A08B6002908B500280812
:100C4E00B4002108A8002808F000250881312E21C3
:100C5E00853171082000B9007008B8003808A80066
:100C6E00A901AA01AB012808AE072908AF3D2A0841
:100C7E00B03D2B08B13D3908A800A901AA01AB016E
:100C8E002808B4072908B53D2A08B63D2B08B73DFC
:100C9E002208A8002808F000240881312E21853171
:100CAE0071082000B9007008B8003808A800A90122
:100CBE00AA01AB012808AE072908AF3D2A08B03DAE
:100CCE002B08B13D3908A800A901AA01AB012808DB
:100CDE00B4072908B53D2A08B63D2B08B73D0830A4
:100CEE00AE35AF0DB00DB10D890B772E2108A800D2
:100CFE002808F000240881312E218531710820004A
:100D0E00B9007008B8003808AE073908AF3D00309A
:100D1E00B03DB13D2008A8002808F000250881311B
:100D2E002E21853171082000B9007008B8003808EE
:100D3E00AE073908AF3D0030B03DB13D0830AE359D
:100D4E00AF0DB00DB10D890BA62E2008A8002808F6
:100D5E00F000240881312E21853171082000B90060
:100D6E007008B8003808AE073908AF3D0030B03D06
:100D7E00B13D2108A8002808F000260881312E2157
:100D8E00853171082000B9007008B8003808B40722
:100D9E003908B53D0030B63DB73D2208A8002808F9
:100DAE00F000250881312E21853171082000B9000F
:100DBE007008B8003808B4073908B53D0030B63DA4
:100DCE00B73D2208A8002808F000260881312E2100
:100DDE00853171082000B9007008B8003808A800E5
:100DEE003908A900AA01AB010830A835A90DAA0D32
:100DFE00AB0D890BFC2E2808B4072908B53D2A082F
:100E0E00B63D2B08B73D2E08A8002F08A9003008C4
:100E1E00AA003108AB001830AB36AA0CA90CA80CEE
:100E2E00890B132F2808B4072908B53D2A08B63DAB
:100E3E002B08B73D0830AE35AF0DB00DB10D890B97
:100E4E00222F33083207A800A901A90D2808823ED7
:100E5E00B800FF30293DB9004B2F0130B435B50D28
:100E6E00B60DB70D890B352FB11F3E2F3F2F402FDB
:100E7E0034140130AE35AF0DB00DB10D890B412FCD
:100E8E00FF30B807FF30B93DB61F4E2F4F2F342F0E
:100E9E00B201B11F532F542F702FFF302E05A80013
:100EAE00FF302F05A900FF303005AA007F30310535
:100EBE00AB002B082A04290428040319672F682F76
:100ECE006B2FB201B20A702F341C6E2F6F2F702F42
:100EDE00682F32080319742F752F9D2F0130B40718
:100EEE000030B53D0030B63D0030B73D371C802F89
:100EFE00812F9D2F3408A8003508A9003608AA00B6
:100F0E003708AB000130AC00AB37AA0CA90CA80C0B
:100F1E00AC0B8B2F2B08B7002A08B6002908B5009A
:100F2E002808B4000130B8070030B93D3908803ABE
:100F3E00A80080302802031DA62FFF303802031CA4
:100F4E00A92FAA2FB42F7F302000B7008030B60013
:100F5E000030B5000030B400E32F20003908803A8D
:100F6E00A80080302802031DBE2F0130380203185E
:100F7E00C12FC22FCD2F00302000B7000030B60099
:100F8E000030B5000030B400AD01E32F200038086A
:100F9E00A8002808B300FF30B405FF30B5057F3038
:100FAE00B6050030B705331CDD2FDE2FDF2FB61749
:100FBE003336A8002808B7002D08A8002808B70463
:100FCE003708A3003608A2003508A1003408A00097
:100FDE0008002000C801C901CA01CB01CC01CD0116
:100FEE00CE01CF01D001D101D201D3012000833136
:020FFE007F2B47
:020000040001F9
:04000E00E43FFF3E8E
:00000001FF
