:08000000803102288731FD2F39
:100D5A0016302100970008006A3021009900980196
:100D6A002200960108007C3020009B009A01911015
:100D7A0006309C0008001C30250093009501803045
:100D8A0094000E30960092013E309100FC309E0590
:100D9A0008008631DE2686318631B12686318631D3
:100DAA00AD2686318631C02686318631B82686310F
:100DBA00080022008C018D01FC3021008C008D017D
:100DCA003E3023008D0003308C0024008D018C01FD
:100DDA002100951722009D019E0108007108F30069
:100DEA007008F200F336F20CF336F20C72082500A2
:100DFA00910070080339F2000430F235890B022F92
:100E0A001308CF397204930008008631CE26873141
:100E1A008631C026873122008D120D13822F0230AF
:100E2A00250096000030F000F1008631F326873164
:100E3A000330F5008A30F4005630890B222FF40B68
:100E4A00222FF50B222F6330F0000030F10086319B
:100E5A00F32687310330F5008A30F4005630890BC7
:100E6A00342FF40B342FF50B342FC730F000003039
:100E7A00F1008631F32687310330F5008A30F40019
:100E8A005630890B462FF40B462FF50B462F2B3085
:100E9A00F0000130F1008631F32687310330F50086
:100EAA008A30F4005630890B582FF40B582FF50B63
:100EBA00582F8F30F0000130F1008631F326873148
:100ECA000330F5008A30F4005630890B6A2FF40B90
:100EDA006A2FF50B6A2FF330F0000130F1008631EA
:100EEA00F32687310330F5008A30F4005630890B37
:100EFA007C2FF40B7C2FF50B7C2F20000C19862FEE
:100F0A00872F142FF62F043025009600F330F000B7
:100F1A000130F1008631F32687310330F5008A303B
:100F2A00F4005630890B972FF40B972FF50B972F58
:100F3A008F30F0000130F1008631F326873103301B
:100F4A00F5008A30F4005630890BA92FF40BA92F2B
:100F5A00F50BA92F2B30F0000130F1008631F32672
:100F6A0087310330F5008A30F4005630890BBB2FE5
:100F7A00F40BBB2FF50BBB2FC730F0000030F1008C
:100F8A008631F32687310330F5008A30F400563073
:100F9A00890BCD2FF40BCD2FF50BCD2F6330F0003D
:100FAA000030F1008631F32687310330F5008A30AC
:100FBA00F4005630890BDF2FF40BDF2FF50BDF2FF0
:100FCA000030F000F1008631F32687310330F50056
:100FDA008A30F4005630890BF02FF40BF02FF50B02
:100FEA00F02F20008C19FA2FFB2F882F803102282E
:060FFA00200087310A2FE0
:020000040001F9
:08000000FF3FFF3FFF3FFF3F00
:04000E00E43FFF3E8E
:00000001FF
