:020000040000FA
:08000000803102288731FB2F3B
:100D280016302100970008006A30210099009801C8
:100D38002200960108008631A92686318631982638
:100D48008631863194268631080022008C018D0177
:100D5800FF3021008C008D0123008D0103308C00B1
:100D680024008D018C012100951722009D019E0110
:100D78000800553020008D000230F1000430F000EA
:100D8800BA30890BC52EF00BC52EF10BC52E0032DB
:100D9800AA3020008D000230F1000430F000BA3093
:100DA800890BD42EF00BD42EF10BD42E0032080070
:100DB800013020008D00F10120000D358D008230BA
:100DC800F000DE30890BE62EF00BE62E0130F00045
:100DD8007008F10707307102031CF32EF42EE02E81
:100DE800F10120000D368D008230F000DE30890BD5
:100DF800FB2EF00BFB2E0130F0007008F1070730D6
:100E08007102031C082F092FF52E08001030F0007E
:100E18007008F1000830F0007008F200F301710862
:100E2800720420008D007135F0007008F1007236F0
:100E3800F0007008F2004130F000EE30890B222FEC
:100E4800F00B222F00320130F0007008F307033056
:100E58007302031C302F312F132FF3017108720412
:100E680020008D007136F0007008F1007235F00036
:100E78007008F2004130F000EE30890B412FF00B82
:100E8800412F00320130F0007008F307033073027D
:100E9800031C4F2F502F322F080020008D01863160
:100EA8009F26873120008C1D5A2F5B2F5D2FF5015F
:100EB8008D010C1D602F612F652F0130F40074081F
:100EC800F5077503031D692F6A2F6D2F8631DC2600
:100ED800873102307506031D722F732F762F8731E5
:100EE8000A27873103307506031D7B2F7C2F7F2F40
:100EF80087319B27873104307506031D842F852F82
:100F0800862FF50120000C1E8A2F8B2F8F2F05307E
:100F1800F4007408F50005307506031D942F952F0D
:100F2800562F8631BD268731562F80310228023050
:100F380020008D000230F1000430F000BA30890B37
:100F4800A32FF00BA32FF10BA32F0032F2012000E7
:100F58000D08F0000130F035FF3E031DAF2F70354E
:100F68008D000230F1000430F000BA30890BBA2F3E
:100F7800F00BBA2FF10BBA2F00320130F0007008D5
:100F8800F20703307202031CCA2FCB2FAB2F40305D
:100F980020008D000230F1000430F000BA30890BD7
:100FA800D32FF00BD32FF10BD32F0032F2012000F7
:100FB8000D08F0000230F036890BDF2F70088D0025
:100FC8000230F1000430F000BA30890BE92FF00B41
:100FD800E92FF10BE92F00320130F0007008F20719
:100FE80003307202031CF92FFA2FDB2F0800F501DA
:080FF800F60120008731512FA2
:020000040001F9
:04000E00E43FFF3E8E
:00000001FF
