:020000040000FA
:08000000803102288731FD2F39
:100CC20016302100970008006A302100990098012F
:100CD2002200960108008631762686318631652605
:100CE2008631863161268631080022008C018D0111
:100CF200FF3021008C008D0123008D0103308C0018
:100D020024008D018C012100951722009D019E0176
:100D1200080086316C268631F201F30120000C1D99
:100D2200932E942E412F0130F2070030F33D1F2FF6
:100D32008D010230F1000430F000BA30890B9F2E91
:100D4200F00B9F2EF10B9F2E0032412F80308D0031
:100D52000230F1000430F000BA30890BAE2EF00BF5
:100D6200AE2EF10BAE2E0032412FC0308D0002307C
:100D7200F1000430F000BA30890BBD2EF00BBD2E0D
:100D8200F10BBD2E0032412FE0308D000230F10018
:100D92000430F000BA30890BCC2EF00BCC2EF10BC4
:100DA200CC2E0032412FF0308D000230F1000430A1
:100DB200F000BA30890BDB2EF00BDB2EF10BDB2EB1
:100DC2000032412FF8308D000230F1000430F00083
:100DD200BA30890BEA2EF00BEA2EF10BEA2E003222
:100DE200412FFC308D000230F1000430F000BA30A7
:100DF200890BF92EF00BF92EF10BF92E0032412F4F
:100E0200FE308D000230F1000430F000BA30890B60
:100E1200082FF00B082FF10B082F0032412FFF3063
:100E22008D000230F1000430F000BA30890B172F28
:100E3200F00B172FF10B172F0032412F7308003AD6
:100E42000319242F412F7208003A0319992E013AEF
:100E52000319A72E033A0319B62E013A0319C52E18
:100E6200073A0319D42E013A0319E32E033A031960
:100E7200F22E013A0319012F0F3A0319102F412FB5
:100E820020008C1D452F462FE12FFF30F207FF3047
:100E9200F33DC22F8D010230F1000430F000BA3070
:100EA200890B512FF00B512FF10B512F0032E12FF3
:100EB20080308D000230F1000430F000BA30890B2E
:100EC200602FF00B602FF10B602F0032E12FC0304A
:100ED2008D000230F1000430F000BA30890B6F2F20
:100EE200F00B6F2FF10B6F2F0032E12FE0308D00EE
:100EF2000230F1000430F000BA30890B7E2FF00B83
:100F02007E2FF10B7E2F0032E12FF0308D00023068
:100F1200F1000430F000BA30890B8D2FF00B8D2FC9
:100F2200F10B8D2F0032E12FF8308D000230F100ED
:100F32000430F000BA30890B9C2FF00B9C2FF10B80
:100F42009C2F0032E12FFC308D000230F100043082
:100F5200F000BA30890BAB2FF00BAB2FF10BAB2F9C
:100F62000032E12FFE308D000230F1000430F0003B
:100F7200BA30890BBA2FF00BBA2FF10BBA2F00320D
:100F8200E12F7308003A0319C72FE12F7208003AC4
:100F920003194B2F013A0319592F033A0319682FEA
:100FA200013A0319772F073A0319862F013A0319D9
:100FB200952F033A0319A42F013A0319B32FE12FF6
:100FC20020000C1EE52FE62F8F2E1A30F1005E3026
:100FD200F0006E30890BEB2FF00BEB2FF10BEB2FA8
:100FE200003220000C1EF62FF72F8F2EF201F30194
:0E0FF2008D018F2E80310228200086318A2E3C
:020000040001F9
:04000E00E43FFF3E8E
:00000001FF
