:020000040000FA
:08000000803102288731FD2F39
:100D200016302100970008006A30210099009801D0
:100D300022009601080087311D27863186319426CE
:100D4000863186319026863108003F3020008D00A4
:100D50001A30F000F830890BAB2EF00BAB2E0032BE
:100D60000800063020008D001A30F000F830890BA2
:100D7000B72EF00BB72E003208005B3020008D003C
:100D80001A30F000F830890BC32EF00BC32E00325E
:100D900008004F3020008D001A30F000F830890B29
:100DA000CF2EF00BCF2E00320800663020008D00D1
:100DB0001A30F000F830890BDB2EF00BDB2E0032FE
:100DC00008006D3020008D001A30F000F830890BDB
:100DD000E72EF00BE72E003208007D3020008D005A
:100DE0001A30F000F830890BF32EF00BF32E00329E
:100DF0000800073020008D001A30F000F830890B11
:100E0000FF2EF00BFF2E003208007F3020008D00F7
:100E10001A30F000F830890B0B2FF00B0B2F00323B
:100E20000800673020008D001A30F000F830890B80
:100E3000172FF00B172F0032080022008C018D01B4
:100E4000FC3021008C008D0123008D018C012400D9
:100E50008D018C012100951722009D019E01080043
:100E600086319B268731F501F6010130F507003008
:100E7000F63D7608803AF40080307402031D422F5C
:100E80000A307502031C452F462F352F332F803132
:100E9000022822000C108C147D2F8631A526873164
:100EA0002730F300F530890B532FF30B532F00003D
:100EB000A22F8631B1268731502F8631BD2687314A
:100EC000502F8631C9268731502F8631D52687315C
:100ED000502F8631E1268731502F8631ED2687311C
:100EE000502F8631F9268731502F873105278731DA
:100EF000502F873111278731502F7208003A03197C
:100F0000822FA22F7108003A03194D2F013A0319BD
:100F1000592F033A03195D2F013A0319612F073A3C
:100F20000319652F013A0319692F033A03196D2F2D
:100F3000013A0319712F0F3A0319752F013A03195A
:100F4000792FA22F080022000C148C10D72F863185
:100F5000A52687312730F300F530890BAD2FF30B31
:100F6000AD2F0000FC2F8631B1268731AA2F8631A4
:100F7000BD268731AA2F8631C9268731AA2F86310F
:100F8000D5268731AA2F8631E1268731AA2F8631CF
:100F9000ED268731AA2F8631F9268731AA2F87318E
:100FA00005278731AA2F873111278731AA2F720889
:100FB000003A0319DC2FFC2F7108003A0319A72F00
:100FC000013A0319B32F033A0319B72F013A031952
:100FD000BB2F073A0319BF2F013A0319C32F033A56
:100FE0000319C72F013A0319CB2F0F3A0319CF2F3B
:100FF000013A0319D32FFC2F080020008731302F2E
:020000040001F9
:04000E00E43FFF3E8E
:00000001FF
