:04000000803119280A
:100008007E1480310B1F09280A2817282100111F88
:100018000E280F2817282000111F13281428172826
:1000280080311F2080317E10090080311B287E100E
:10003800200080316F282000111380318720803103
:100048002D2821009D1829282A2825281C08200049
:100058008D0020000C1931283228252870087104D9
:100068000319372838283D2871088A0070080A00C3
:100078008031080022008C018D01FF3021008C00A6
:100088008D0123008D011B308C0024008D018C0113
:100098002100951722009D019E0108004030210093
:1000A8009E009B019C0101309D0011178A30F200CF
:1000B8000030F30080317E208031080080313E20FE
:1000C80080318031772080318031832080318031C8
:1000D8005220803108008031622080318B170B1745
:1000E8007428803119286A3021009900980122006B
:1000F800960108007308F1007208F0000800163035
:0E01080021009700080021009D140800080047
:020000040001F9
:04000E00E43FFF3E8E
:00000001FF
