:020000040000FA
:08000000803102288731FD2F39
:100D680016302100970008006A3021009900980188
:100D78002200960108008631C92686318631B826B8
:100D880086318631B4268631080022008C018D0117
:100D9800FC3021008C008D0123008D018C01240082
:100DA8008D018C012100951722009D019E010800EC
:100DB8008631BF268631013020008D008230F00058
:100DC800DE30890BE52EF00BE52E023020008D0079
:100DD8008230F000DE30890BEF2EF00BEF2E04305E
:100DE80020008D008230F000DE30890BF92EF00BE8
:100DF800F92E083020008D008230F000DE30890B9B
:100E0800032FF00B032F20008C1408308D00823044
:100E1800F000DE30890B0E2FF00B0E2F20008C1007
:100E28000C1408308D008230F000DE30890B1A2F48
:100E3800F00B1A2F20000C1D222F232FCF2F0C1E52
:100E4800262F272FCF2F0C1D2A2F2B2F3E2F8C1DFF
:100E58002E2F2F2F3E2F0C1E322F332F3E2F0630D2
:100E6800F1001330F000AE30890B382FF00B382F1B
:100E7800F10B382F083020008D000C108C1408302E
:100E88008D008230F000DE30890B482FF00B482FA0
:100E980020008C1008308D008230F000DE30890B85
:100EA800532FF00B532F043020008D008230F000B8
:100EB800DE30890B5D2FF00B5D2F023020008D0096
:100EC8008230F000DE30890B672FF00B672F01307E
:100ED80020008D008230F000DE30890B712FF00B7E
:100EE800712F20008C1401308D008230F000DE302C
:100EF800890B7C2FF00B7C2F20008C100C140130F8
:100F08008D008230F000DE30890B882FF00B882F9F
:100F1800203020008D008230F000DE30890B922FC7
:100F2800F00B922F103020008D008230F000DE3060
:100F3800890B9C2FF00B9C2F083020008D008230ED
:100F4800F000DE30890BA62FF00BA62F20000C1D19
:100F5800AE2FAF2FC32F8C1DB22FB32FC32F0C1E54
:100F6800B62FB72FC32F0630F1001330F000AE3084
:100F7800890BBC2FF00BBC2FF10BBC2FCC2F0C1DF9
:100F8800C62FC72FCC2F0C1ECA2FCB2FCC2FCF2F5D
:100F980020000C10272F10308D008230F000DE303A
:100FA800890BD42FF00BD42F203020008D008230F5
:100FB800F000DE30890BDE2FF00BDE2F0130200031
:100FC8008D008230F000DE30890BE82FF00BE82F1F
:100FD80020000C108C1401308D008230F000DE30BF
:100FE800890BF42FF00BF42F20008C10DF2E8031AA
:080FF800022820008631DC2EE6
:020000040001F9
:04000E00E43FFF3E8E
:00000001FF
