:10000000803102288731E92F22008C018D01FF30D9
:1000100021008C0013308D0023008D011F308C00D7
:1000200024008D018C012100951722009D019E0165
:1000300008002000A300A401A40A2100BC18212864
:1000400022283928BC142000A401230803192928D8
:100050002A282E282100BA01BA0A33280230FD00CE
:100060007D082100BA008E31502680318E31F42671
:100070008031200024080800F800F401F501700820
:10008000F200F3017208F6007308F700781C4928A3
:100090004A284E287608F4077708F53D0130F635F2
:1000A000F70D890B4F280310F80C7808031D592809
:1000B0005A2846287508F1007408F0000800F4007A
:1000C0007008710403196528662877287435A03EE6
:1000D000860087017008C03F7108C13F7208F300B5
:1000E0007408AC3E8600870173088100842874354B
:1000F000A03E860087014030C03F0E30C13F7408EB
:10010000AC3E86008701810108002000A800200085
:100110002808813136218031003A0319902891282E
:10012000872820002708F1002608F00025088F31D5
:100130001B2780310030F500F600F7018F310E27C4
:1001400080318E31A02680318F31E4278031013A11
:100150000319AB28AC28A428080021003C10023069
:10016000FA007A08BB00BC288E3182268031D8285C
:100170008E3187268031D8282E08FA007A08F900B7
:100180000430A03E86008701413F8A00403F0A00BC
:100190008031FB00FC017C08003A0319D028B82804
:1001A0007B08023A0319B428013A0319B428B82885
:1001B00008008E314726803121003C1CE028E128D0
:1001C000EF288E31A5268031003A0319E828E92866
:1001D000EF280F302000A00020082100BA002100E5
:1001E0003A082000A000A101A035A10D0030200791
:1001F00084008830213D8500013F8A00003F0A00CD
:1002000081312000A20022082100BA00080021004C
:10021000BC1517298E318226813135298E315F2612
:100220008131033035298E318726813135292C08DB
:10023000FA007A08F90021088A0020080A008131B2
:10024000FB00FC017C08003A0319272913297B08CD
:10025000013A03191329033A03190A29013A031928
:100260000A29073A03190E2913290800F100F2019F
:10027000F20A21003C193D293E296E297108F0003F
:100280007008B600BC103C153C100E30F000700831
:10029000BA00F430B4000130B500BC154030A00005
:1002A0000E30A100AC014030A2000E30A300AD0121
:1002B0004030A4000E30A500AE014030A6000E3044
:1002C000A700AF014230A8000E30A900B0018E3166
:1002D000472681318F3101278131F20172080800F0
:1002E0008E315C268131FA002100370886008701B3
:1002F0007A0881000130FA007A08B7070130B802A5
:100300000030B93B380839040319872988298D2919
:100310008E31662681310530B529BC1597298E317D
:1003200096268131B5298E3191268131B5292C0847
:10033000FA007A08F90021088A0020080A008131B1
:10034000FB00FC017C08003A0319A72993297B08CC
:10035000013A03199329033A03198F29013A031922
:100360008F29073A0319932993290800F601F31FEF
:10037000BA29BB29C229F209F309F20A0319F30ABF
:10038000F601F60AF11FC529C629CB29F009F109A2
:10039000F00A0319F10A700871040319D029D12950
:1003A000FA29F501F50ADD290130F035F10D890B47
:1003B000D5290130F4007408F507F11FE029E1297F
:1003C000D42971087302031DE72970087202031C07
:1003D000EA29EB29EF297008F2027108F33B01309A
:1003E000F136F00C890BF0290130F502031DF929D3
:1003F000FA29E12976080319FE29FF29042AF209BE
:10040000F309F20A0319F30A7308F1007208F00005
:1004100008008E31A5268231003A0319102A112ACC
:10042000412A1E2A8E31782682315D2A8E317D2620
:1004300082315D2A8E31872682315D2A21002F0884
:10044000FA007A08F9000630A03E86008701413F95
:100450008A00403F0A008231FB00FC017C08003A20
:100460000319332A1A2A7B08013A03191A2A033A74
:100470000319122A013A0319162A073A03191A2AEC
:100480001A2A21003C101730A03E86008701403F09
:1004900084008501810A00088E316E268231013088
:1004A0002100B8020030B93B38083904031D592A2D
:1004B0005A2A5C2A06305D2A03300800F601F11F33
:1004C000622A632A6A2AF009F109F00A0319F10A7B
:1004D000F601F60AF31F6D2A6E2A772AF209F3094C
:1004E000F20A0319F30A0130F4007408F606F70162
:1004F000F8017008710403197E2A7F2AAE2AF501DB
:10050000F50A8B2A0130F035F10D890B832A013071
:10051000F4007408F507F11F8E2A8F2A822A013011
:10052000F735F80D890B902A71087302031D9A2A7A
:1005300070087202031C9D2A9E2AA32A7008F202E8
:100540007108F33B77140130F136F00C890BA42AC3
:100550000130F502031DAD2AAE2A8F2A7608031951
:10056000B22AB32AB82AF709F809F70A0319F80AD0
:100570007808F1007708F0000800031020003C0D17
:100580003D0DBE003E08C4004408031DC82AC92A08
:10059000D22A0030BD000030BC000030BB0000306B
:1005A000BA00312B3A08BE003B08BF003C08C0002F
:1005B0003D08C1001F30C136C00CBF0CBE0C890BFA
:1005C000DB2A3E08C2004208C300BC17FF30BA0550
:1005D000FF30BB05FF30BC050030BD059630C402BE
:1005E000C41FF32AF42A0C2B4408803A973E0318C0
:1005F000FA2AFB2AFC2AC92A0130BD36BC0CBB0CE6
:10060000BA0C890BFD2A0130BE003E08C407031D49
:100610000A2B0B2BFC2A212B20304402031C112B0C
:10062000122B1C2BC92A0130BA35BB0DBC0DBD0DD8
:10063000890B142B0130C4024408031D202B212BED
:10064000132B43080319252B262B312BBA09BB0981
:10065000BC09BD09BA0A0319BB0A0319BC0A03196C
:10066000BD0A08002000B3003308B1003108E100E2
:1006700082302000B100DD30890B3C2BB10B3C2BCC
:10068000003200308F31A227833102302000B200C7
:100690000230B1002130890B4B2BB10B4B2BB20B2D
:1006A0004B2B2000E00130308F312B2783310C3071
:1006B0002000B100AF30890B5B2BB10B5B2B3030CE
:1006C0008F312B2783310C302000B100AF30890BE4
:1006D000672BB10B672B30308F312B278331643080
:1006E000890B702B20308F312B2783316430890B9D
:1006F000772B02308F31B62783310D302000B100C7
:10070000FB30890B812BB10B812B003228308F31CC
:10071000B627833182302000B100DD30890B8E2B6B
:10072000B10B8E2B00320C308F31B62783318230E3
:100730002000B100DD30890B9B2BB10B9B2B0032CD
:1007400001308F31B627833182302000B100DD3097
:10075000890BA82BB10BA82B003206308F31B6279E
:10076000833182302000B100DD30890BB52BB10B15
:10077000B52B00320800F80078080319C02BC12BF4
:10078000D52BF31FC42BC52BD52B7009FA0071098B
:10079000FB007209FC007309FD00FA0A0319FB0A49
:1007A0000319FC0A0319FD0ADD2B7308FD0072080A
:1007B000FC007108FB007008FA00730872047104F1
:1007C0007004031DE42BE52BEE2B0030F30000300A
:1007D000F2000030F1000030F000662C9630F4009A
:1007E0007408F900FE2B0130F4007408F907013099
:1007F000FD36FC0CFB0CFA0C890BF82BFE307D054A
:10080000031D032C042CF32B182C0130F400740866
:10081000F9070130FA070030FB3D0030FC3D0030A5
:10082000FD3D0130FD36FC0CFB0CFA0C890B122C43
:10083000FF307D05031D1D2C1E2C052C282C01309E
:10084000F9020130FA35FB0DFC0DFD0D890B222C50
:10085000FC1B2B2C2C2C322C023079020318312C4F
:10086000322C1F2C7918352C362C3E2CFF30FA05F3
:10087000FF30FB057F30FC05FF30FD050310F90C50
:100880007908F400F501F601F7011830F435F50D9B
:10089000F60DF70D890B462C7408FA047508FB0455
:1008A0007608FC047708FD0478080319582C592CA5
:1008B0005E2CF31F5C2C5D2C5E2CFD177D08F30075
:1008C0007C08F2007B08F1007A08F00008008F3104
:1008D0003B2784318E31CD2684312730833132233A
:1008E000843101302000DC070030DD3D5C18792CBC
:1008F0007A2C042D833021009D058E3144268431CD
:1009000021009D18842C852C802C1C082000C500FB
:10091000C6014508C600C50121001B082000450787
:10092000F00046080318460AF100F201F11BF20339
:100930007208F30001308331BB2384317308200037
:10094000A7007208A6007108A5007008A4003B303B
:10095000A3009630A200BB30A1009930A0008531E1
:100960009225843120002308BD002208BC00210804
:10097000BB002008BA008231BD22843120003B0830
:10098000CB003A08CA006430F0000030F1004B0898
:10099000F3004A08F20082315E228431710820009F
:1009A000DB007008DA006430F0000030F1004B0822
:1009B000F3004A08F2008131B62184317108200029
:1009C000CF007008CE000A30F0000030F1004F0870
:1009D000F3004E08F20082315E228431710820005B
:1009E000D7007008D6000A30F0000030F1004F0840
:1009F000F3004E08F2008131B621843171082000E5
:100A0000D3007008D200712C21001D0883390438EE
:100A10009D008E314426843121009D18102D112D0A
:100A20000C2D1C082000C500C6014508C600C501E4
:100A300021001B0820004507F00046080318460A5D
:100A4000F100F201F11BF2037208F300013083316F
:100A5000BB23843173082000A7007208A600710828
:100A6000A5007008A4003B30A3009630A200BB3064
:100A7000A1009930A00085319225843120002308FF
:100A8000BD002208BC002108BB002008BA0082314A
:100A9000BD22843120003B08C9003A08C8006430F8
:100AA000F0000030F1004908F3004808F2008231FC
:100AB0005E22843171082000D9007008D8006430AB
:100AC000F0000030F1004908F3004808F2008131DD
:100AD000B621843171082000CD007008CC000A30A6
:100AE000F0000030F1004D08F3004C08F2008231B4
:100AF0005E22843171082000D5007008D4000A30CD
:100B0000F0000030F1004D08F3004C08F200813194
:100B1000B621843171082000D1007008D000712CFA
:100B200080310228200023088039A8002808AD0061
:100B30002335A8002808B300A21F9F2DA02DA12DAA
:100B4000331433080319A52DA62DB52D330A031D23
:100B5000AA2DAB2DB32D0030A3000030A200003031
:100B6000A1000030A000A217BD2D0030A30000306E
:100B7000A2000030A1000030A00027088039A800A2
:100B80002808AD062735A8002808B200A61FC92DE1
:100B9000CA2DCB2D321432080319CF2DD02DDF2DC5
:100BA000320A031DD42DD52DDD2D0030A7000030D5
:100BB000A6000030A5000030A400A617E72D0030E5
:100BC000A7000030A6000030A5000030A4003208C5
:100BD0000319EB2DEC2DF12D3308031DF02DF12D14
:100BE000FA2D0030A3000030A2000030A100003038
:100BF000A000E82F2008A8002808F000260880316F
:100C00003C20853171082000B9007008B800380810
:100C1000A800A901AA01AB012B08B1002A08B00065
:100C20002908AF002808AE003908A800A901AA01C8
:100C3000AB012B08B7002A08B6002908B500280820
:100C4000B4002108A8002808F000250880313C20C5
:100C5000853171082000B9007008B8003808A80074
:100C6000A901AA01AB012808AE072908AF3D2A084F
:100C7000B03D2B08B13D3908A800A901AA01AB017C
:100C80002808B4072908B53D2A08B63D2B08B73D0A
:100C90002208A8002808F000240880313C20853173
:100CA00071082000B9007008B8003808A800A90130
:100CB000AA01AB012808AE072908AF3D2A08B03DBC
:100CC0002B08B13D3908A800A901AA01AB012808E9
:100CD000B4072908B53D2A08B63D2B08B73D0830B2
:100CE000AE35AF0DB00DB10D890B702E2108A800E7
:100CF0002808F000240880313C208531710820004C
:100D0000B9007008B8003808AE073908AF3D0030A8
:100D1000B03DB13D2008A8002808F000250880312A
:100D20003C20853171082000B9007008B8003808EF
:100D3000AE073908AF3D0030B03DB13D0830AE35AB
:100D4000AF0DB00DB10D890B9F2E2008A80028080B
:100D5000F000240880313C20853171082000B90062
:100D60007008B8003808AE073908AF3D0030B03D14
:100D7000B13D2108A8002808F000260880313C2059
:100D8000853171082000B9007008B8003808B40730
:100D90003908B53D0030B63DB73D2208A800280807
:100DA000F000250880313C20853171082000B90011
:100DB0007008B8003808B4073908B53D0030B63DB2
:100DC000B73D2208A8002808F000260880313C2002
:100DD000853171082000B9007008B8003808A800F3
:100DE0003908A900AA01AB010830A835A90DAA0D40
:100DF000AB0D890BF52E2808B4072908B53D2A0844
:100E0000B63D2B08B73D2E08A8002F08A9003008D2
:100E1000AA003108AB001830AB36AA0CA90CA80CFC
:100E2000890B0C2F2808B4072908B53D2A08B63DC0
:100E30002B08B73D0830AE35AF0DB00DB10D890BA5
:100E40001B2F33083207A800A901A90D2808823EEC
:100E5000B800FF30293DB900442F0130B435B50D3D
:100E6000B60DB70D890B2E2FB11F372F382F392F05
:100E700034140130AE35AF0DB00DB10D890B3A2FE2
:100E8000FF30B807FF30B93DB61F472F482F2D2F31
:100E9000B201B11F4C2F4D2F692FFF302E05A80036
:100EA000FF302F05A900FF303005AA007F30310543
:100EB000AB002B082A04290428040319602F612F92
:100EC000642FB201B20A692F341C672F682F692F73
:100ED000612F320803196D2F6E2F962F0130B40742
:100EE0000030B53D0030B63D0030B73D371C792F9E
:100EF0007A2F962F3408A8003508A9003608AA00D2
:100F00003708AB000130AC00AB37AA0CA90CA80C19
:100F1000AC0B842F2B08B7002A08B6002908B500AF
:100F20002808B4000130B8070030B93D3908803ACC
:100F3000A80080302802031D9F2FFF303802031CB9
:100F4000A22FA32FAD2F7F302000B7008030B60036
:100F50000030B5000030B400DC2F20003908803AA2
:100F6000A80080302802031DB72F01303802031873
:100F7000BA2FBB2FC62F00302000B7000030B600BC
:100F80000030B5000030B400AD01DC2F200038087F
:100F9000A8002808B300FF30B405FF30B5057F3046
:100FA000B6050030B705331CD62FD72FD82FB6176C
:100FB0003336A8002808B7002D08A8002808B70471
:100FC0003708A3003608A2003508A1003408A000A5
:100FD00008008E313F268731E2004830840000301F
:100FE000850019308E31B1268731A0308400003061
:100FF00085001D308E31B126873120008431672C69
:1010000073340E34D5340E34C5340E3409340234FE
:1010100070340134B7340E340734013478340E346C
:101020007D340E3482340E3487340E348C340E34D6
:1010300091340E3496340E349B340E34AD34003477
:101C7E000834013008000530080021009D140800CA
:101C8E0020009111080024009512080021009111E6
:101C9E0008002400161408002400961408002400DE
:101CAE0016150800240096150800240011080800D7
:101CBE002000911508002400961616160800240020
:101CCE009612161608001630210097000800F00034
:101CDE0070082400910008002100BC10BB010E30DA
:101CEE0008008E3153268E31013008008E31532676
:101CFE008E31023008008E3153268E3101300800AD
:101D0E008E3156268E31003008008E3166268E3189
:101D1E00053008008E3162268E310A3008008E3171
:101D2E0062268E31093008002100BC10BB010E3036
:101D3E0008000030803119208E3108002400160E64
:101D4E00890C890C013908002000911DAF2EB02E90
:101D5E00AB2E0800640080010131890BB22E0034D5
:101D6E0021003C108E3159268E310430080072301D
:101D7E0021009900980122009601080021003C14D0
:101D8E0036358E316E268E3103300800103021002C
:101D9E009E009B019C0101309D00080021003C1417
:101DAE000314360D8E316E268E3105300800240058
:101DBE009401083095009601133092009512080098
:101DCE007608F1007508F0007708F8007808F20040
:101DDE00003080315F208E310800FB2E8E31AB2615
:101DEE008E318031D9208E312100BC18FF2E002F6C
:101DFE00F52E08002400951A052F062F0D2F94019D
:101E0E00083095009601133092009516080076085A
:101E1E00F1007508F0007708F8007808F20002303B
:101E2E0080315F208F310800F3002100BC1D202F70
:101E3E00212F2A2F7308F2007208B7007108B9001B
:101E4E007008B800BC1108002000AE006008AD009C
:101E5E002D08AE042E088F31A2278F3120002E08B8
:101E6E008F318F278F3108008E31DE268F318031F2
:101E7E0004208F318E31BE268F318E316A268F31FE
:101E8E008E31CD268F3108000230F0000030F10087
:101E9E0079088F311B278F310030F500F600F701DE
:101EAE008E31E7268F31043008000130F00000300B
:101EBE00F10079088F311B278F310030F500F600C5
:101ECE00F7018E31E7268F31023008000230F00024
:101EDE000030F10079088F311B278F310030F5006B
:101EEE00F600F7018E31E7268F31023008000130FF
:101EFE00F0000030F10079088F311B278F31003050
:101F0E00F500F600F7018E31E7268F310430080018
:101F1E002000AC002C0804388F31A2278F310032FC
:101F2E0020002C08FB388F31A2278F312130890BEE
:101F3E009E2F000008002000AA002A086204A900B3
:101F4E002908AB002B30A9002908A5000130A600F6
:101F5E000030A7006108803185208F3108002000F5
:101F6E00B000E0013008F0398F312B278F3120007F
:101F7E003008AF000330AF35FF3E031DC22F2F35A3
:101F8E00F0398F312B278F310800790886008701B1
:101F9E00403FF000413FF1007908023E8600870184
:101FAE0001088F311B278F310030F500F600F70145
:101FBE008E31E7268F3102300800F101F10A21003F
:101FCE00BC18EA2FEB2FFE2F3C11FF30F0007008EB
:101FDE00B6008E3147268F318E314D268F318E31A0
:101FEE004A268F3121003B08F0007008F10071087D
:021FFE000800D9
:020000040001F9
:08000000FF3FFF3FFF3FFF3F00
:04000E00E43FFF3E8E
:00000001FF
